:100000000C942A000C9447000C9447000C94470071
:100010000C9447000C9447000C9447000C94470044
:100020000C9447000C9447000C9447000C94470034
:100030000C9447000C9447000C9447000C94470024
:100040000C9447000C9447000C9447000C94470014
:100050000C94470011241FBECFE5D4E0DEBFCDBF16
:1000600010E0A0E6B0E0E8E4F4E002C005900D92F4
:10007000A236B107D9F720E0A2E6B0E001C01D9298
:10008000A336B207E1F70E947F010C9422020C9480
:1000900000008FEF81BB12BA089588E98AB986E81B
:1000A00080BD87E689B908955D9BFECF8CB9089520
:1000B0001F93CF93DF93EC018881882381F010E0B8
:1000C0000E9454001F5F8FE19EE40197F1F700C08A
:1000D0000000FE01E10FF11D80818111F1CFDF9160
:1000E000CF911F9108955F9BFECF8CB10895CF9261
:1000F000DF92EF92FF926B017C0182B312BA20E093
:1001000030E048EC52E4C701B6010E94FA018111C7
:1001100004C082B3806C82BB37C020E030E040EA8C
:1001200050E4C701B6010E94FA01811112C082B3E6
:10013000806C82BB8FE19EE40197F1F700C0000064
:1001400082B312BA8FE19EE40197F1F700C000007C
:100150001BC020E030E040E451E4C701B6010E943A
:10016000FA01811111C082B3806C82BB8FE79BEBD7
:100170000197F1F700C0000082B312BA8FE19EE44C
:100180000197F1F700C00000FF90EF90DF90CF9053
:100190000895CF92DF92EF92FF926B017C0182B3C0
:1001A00012BA20E030E048EC52E4C701B6010E94E8
:1001B000FA01811104C082B3806382BB37C020E0A2
:1001C00030E040EA50E4C701B6010E94FA01811113
:1001D00012C082B3806382BB8FE19EE40197F1F786
:1001E00000C0000082B312BA8FE19EE40197F1F7DC
:1001F00000C000001BC020E030E040E451E4C70133
:10020000B6010E94FA01811111C082B3806382BBE2
:100210008FE79BEB0197F1F700C0000082B312BAA1
:100220008FE19EE40197F1F700C00000FF90EF908E
:10023000DF90CF90089592B312BA843621F482B33E
:10024000806982BB0895853091F482B3806982BB56
:100250008FE19EE40197F1F700C0000082B312BA6B
:100260008FE19EE40197F1F700C0000008958C3003
:1002700089F482B3806982BB8FE79BEB0197F1F72A
:1002800000C0000082B312BA8FE19EE40197F1F73B
:1002900000C00000089592B312BA843621F482B3EC
:1002A000806682BB0895853091F482B3806682BBFC
:1002B0008FE19EE40197F1F700C0000082B312BA0B
:1002C0008FE19EE40197F1F700C0000008958C30A3
:1002D00089F482B3806682BB8FE79BEB0197F1F7CD
:1002E00000C0000082B312BA8FE19EE40197F1F7DB
:1002F00000C00000089582B3837082BB08950E94FD
:1003000049000E944D008FE39CE90197F1F700C07E
:1003100000001FBC1EBC8FEF90E09BBD8ABD99BD45
:1003200088BD80E690E00E9458000E947300809390
:100330006200863631F460E070E080EA90E40E946A
:10034000770080916200873639F460E070E080E4E5
:1003500091E40E947700E9CF883639F460E070E0DC
:1003600088EC92E40E947700E0CF823639F460E0B6
:1003700070E080EA90E40E94C900D7CF833639F458
:1003800060E070E080E491E40E94C900CECF843642
:1003900039F460E070E088EC92E40E94C900C5CFB7
:1003A0008C3621F485E00E944B01BFCF8D3621F4BD
:1003B0008CE00E944B01B9CF8E3621F484E60E9476
:1003C0004B01B3CF823721F485E00E941B01ADCFF2
:1003D000833721F48CE00E941B01A7CF843721F4DE
:1003E00084E60E941B01A1CF8A3709F09ECF0E94AC
:1003F0007B019BCF03D008F481E00895990F00089A
:10040000550FAA0BE0E8FEEF16161706E807F907E6
:10041000C0F012161306E407F50798F0621B730B81
:10042000840B950B39F40A2661F0232B242B252B02
:1004300021F408950A2609F4A140A6958FEF811DA5
:08044000811D0895F894FFCF1F
:02044800410071
:00000001FF
